:100000000C9446000C9465000C9465000C946500FB
:100010000C9465000C9465000C9465000C946500CC
:100020000C9465000C9465000C9465000C946500BC
:100030000C9465000C94E3000C9465000C9465002E
:100040000C9465000C9465000C9465000C9465009C
:100050000C9465000C9465000C9465000C9465008C
:100060000C9465000C9465000C9465000C9465007C
:100070000C9465000C9465000C9465000C9465006C
:100080000C9465000C9465000C94650011241FBE4F
:10009000CFEFD0E4DEBFCDBF11E0A0E0B1E0E0E6FD
:1000A000F9E000E00BBF02C007900D92A231B1074A
:1000B000D9F721E0A2E1B1E001C01D92A731B2075A
:1000C000E1F70E9443020C94AE040C940000CF931D
:1000D000DF9300D000D0CDB7DEB769837A838B83FE
:1000E0009C8389819A81AB81BC818093000190932C
:1000F0000101A0930201B09303018091000190914E
:100100000101A0910201B09103018093130190932A
:100110001401A0931501B093160100000F900F90E9
:100120000F900F90DF91CF910895CF93DF93CDB7CC
:10013000DEB781E890E02BE0FC01208388E890E0C6
:100140002DE730E0FC01318320838FE690E022E050
:10015000FC01208384E890E0FC01118210828091F0
:10016000000190910101A0910201B09103018093DF
:10017000130190931401A0931501B09316018FE51C
:1001800090E02FE530E0F90120812068FC01208318
:100190000000DF91CF910895CF93DF93CDB7DEB705
:1001A00081E890E0FC0110820000DF91CF9108957A
:1001B000CF93DF93CDB7DEB781E0809312010000CB
:1001C000DF91CF9108951F920F9200905F000F92E0
:1001D000112400905B000F922F933F934F935F93F6
:1001E0006F937F938F939F93AF93BF93EF93FF93FF
:1001F000CF93DF93CDB7DEB78091130190911401B7
:10020000A0911501B09116010197A109B109809340
:10021000130190931401A0931501B09316018091DE
:10022000130190911401A0911501B0911601892B31
:100230008A2B8B2B91F40E94D80080910001909121
:100240000101A0910201B0910301809313019093E9
:100250001401A0931501B09316010000DF91CF9116
:10026000FF91EF91BF91AF919F918F917F916F918E
:100270005F914F913F912F910F9000925B000F90F3
:1002800000925F000F901F901895CF93DF9300D0DE
:100290001F92CDB7DEB789837B836A8389818A30D9
:1002A00031F48A819B81BC018DE00E94450180EC84
:1002B00090E0FC018081882F90E080729927892B43
:1002C000B1F386EC90E02981FC01208380E090E08E
:1002D0000F900F900F90DF91CF9108952F923F9242
:1002E000CF93DF9300D0CDB7DEB7C1013A82298228
:1002F000FC01258936892230310509F467C0233095
:10030000310538F42115310589F021303105A1F08E
:1003100080C02430310509F447C02430310508F489
:100320005BC02530310509F45DC073C021E030E0C9
:10033000FC01368B258B6DC0FC012489222371F0D2
:10034000FC012389222351F4FC012289222331F468
:1003500022E030E0FC01368B258B25C0FC0124898E
:10036000222371F4FC012389222351F0FC0122890C
:10037000222331F423E030E0FC01368B258B13C0BF
:10038000FC012489222309F03FC0FC012389222398
:10039000D9F5FC0122892223B9F124E030E0FC01E7
:1003A000368B258B31C030C0FC012489222371F5A6
:1003B000FC012389222351F5FC012289222331F5F6
:1003C00021E030E0FC01368B258B20C025E030E0B9
:1003D000FC01368B258B1DC025E030E0FC01368BFF
:1003E000258B17C0FC012489222391F4FC01238969
:1003F000222371F4FC012289222351F421E030E010
:10040000FC01368B258B04C0000003C0000001C036
:100410000000FC012589368922303105C9F02330DE
:10042000310538F42115310519F12130310541F03C
:1004300022C02430310541F02430310598F01BC032
:1004400020E0FC01218B17C021E0FC01218B13C0AF
:10045000FC012089223070F0FC0120892150FC0130
:10046000208B08C0FC0120892F5FFC01208B03C07A
:10047000000001C0000000000F900F90DF91CF91AD
:100480003F902F9008952F923F92CF93DF93CDB757
:10049000DEB767970FB6F894DEBF0FBECDBF81E21F
:1004A00090E0FC01108282E290E02FEFFC012083BB
:1004B00084E290E02FEFFC01208385E290E0FC01D4
:1004C000108281E090E09E878D8781E090E099879F
:1004D000888781E0898381E0898B80E08A8B61E075
:1004E00070E080E090E00E9467000E94950080E04C
:1004F00090E0988B8F8780E090E09E838D8380E0F2
:1005000090E09B878A8780E090E09B838A8380E0ED
:1005100090E09F8B8E8B80E290E0FC018081882FA1
:1005200090E08170992721E0892B09F020E0822F4B
:100530008D8B80E290E0FC018081809582708C8BB5
:1005400080E290E0FC018081809584708B8BCE01ED
:1005500001961C010E94C802CE0101961C010E9456
:100560005B03CE0101961C010E946E01CE01019633
:100570001C010E941F04CE0101961C010E94CA03A7
:100580000000809112018823E1F310921201C3CF81
:100590002F923F92CF93DF9300D0CDB7DEB7C1014A
:1005A0003A822982FC01268537852130310581F088
:1005B0002130310538F02230310521F12330310569
:1005C000D9F154C021E030E0FC01378726874EC0C6
:1005D000FC01248535852C32314059F422E030E08D
:1005E000FC013787268721E030E0FC01358724872E
:1005F0003DC0FC01248535852F5F3F4FFC013587C9
:10060000248734C0FC01248535852C32314059F4CF
:1006100023E030E0FC013787268721E030E0FC0151
:100620003587248723C0FC01248535852F5F3F4F04
:10063000FC01358724871AC0FC01248535852C32BE
:10064000314059F421E030E0FC013787268721E072
:1006500030E0FC013587248708C0FC0124853585FE
:100660002F5F3F4FFC01358724870000FC01268562
:1006700037852130310551F02130310598F0223095
:10068000310541F02330310549F00DC021E0FC0176
:10069000238709C022E0FC01238705C024E0FC0178
:1006A000238701C0000000000F900F90DF91CF91D1
:1006B0003F902F9008952F923F92CF93DF9300D0D9
:1006C000CDB7DEB7C1013A822982FC01218532858E
:1006D0002130310569F02130310520F0223031051B
:1006E00009F13AC021E030E0FC013287218734C0B3
:1006F000FC0127813085283E334059F422E030E068
:10070000FC013287218721E030E0FC01308727831C
:1007100023C0FC01278130852F5F3F4FFC013087CC
:1007200027831AC0FC0127813085283E334059F4C5
:1007300021E030E0FC013287218721E030E0FC013C
:100740003087278308C0FC01278130852F5F3F4F0A
:10075000FC01308727830000FC0121853285213090
:10076000310539F02130310560F02230310529F0B2
:1007700009C021E0FC01268305C020E0FC0126839E
:1007800001C0000000000F900F90DF91CF913F90CB
:100790002F9008952F923F92CF93DF9300D0CDB743
:1007A000DEB7C1013A822982FC01248135812115FD
:1007B000310521F02130310539F00CC021E030E065
:1007C000FC013583248306C021E030E0FC01358341
:1007D00024830000FC01248135812115310531F18C
:1007E0002130310509F023C025E230E0FC014381CE
:1007F0004295407FF901408325E230E045E250E038
:10080000FA015081FC014681440F440F440F450F0B
:10081000F901408325E230E045E250E0FA014081F1
:10082000FC018385840FF901808301C00000000072
:100830000F900F90DF91CF913F902F9008952F92BE
:100840003F92CF93DF9300D0CDB7DEB7C1013A829C
:100850002982FC01218132812130310581F0213052
:10086000310538F022303105A1F12330310591F006
:1008700050C021E030E0FC01328321834AC0FC01FA
:100880002189213009F044C023E030E0FC013283AB
:1008900021833EC0FC012189222331F421E030E094
:1008A000FC013283218335C0FC013081FC012089A9
:1008B000321749F422E030E0FC013283218321E049
:1008C000FC01208326C0FC0120812F5FFC012083D6
:1008D00020C0FC012189222331F421E030E0FC0119
:1008E0003283218316C0FC013081FC01208932173C
:1008F00049F423E030E0FC013283218321E0FC0154
:10090000208307C0FC0120812F5FFC01208301C0F0
:100910000000FC01218132812130310551F021306C
:10092000310598F02230310561F02330310529F08E
:100930000DC020E0FC01238309C021E0FC012383DA
:1009400005C020E0FC01238301C0000000000F90DF
:100950000F90DF91CF913F902F900895F894FFCFA3
:10096000010000000000000200000000450100003E
:02097000000085
:00000001FF
